{
  "transactions": [
    {
      "hash": "0x62d5fe7ca59ceb157cb9d6a4ff94aee444bd067b12311b82a5febd8a486a7cdd",
      "transactionType": "CREATE",
      "contractName": "PRGToken",
      "contractAddress": "0x5c39612259941648ddbd022689f9d891699177cc",
      "function": null,
      "arguments": null,
      "transaction": {
        "from": "0x5364e0440e57f7401e64a89eec7ac7998373dda6",
        "gas": "0xdd96c",
        "value": "0x0",
        "input": "0x608060405234801562000010575f80fd5b50336040518060400160405280600b81526020016a283ab933b2902a37b5b2b760a91b8152506040518060400160405280600381526020016250524760e81b8152508160039081620000639190620001a6565b506004620000728282620001a6565b5050506001600160a01b038116620000a357604051631e4fbdf760e01b81525f600482015260240160405180910390fd5b620000ae81620000b5565b506200026e565b600580546001600160a01b038381166001600160a01b0319831681179093556040519116919082907f8be0079c531659141344cd1fd0a4f28419497f9722a3daafe3b4186f6b6457e0905f90a35050565b634e487b7160e01b5f52604160045260245ffd5b600181811c908216806200012f57607f821691505b6020821081036200014e57634e487b7160e01b5f52602260045260245ffd5b50919050565b601f821115620001a1575f81815260208120601f850160051c810160208610156200017c5750805b601f850160051c820191505b818110156200019d5782815560010162000188565b5050505b505050565b81516001600160401b03811115620001c257620001c262000106565b620001da81620001d384546200011a565b8462000154565b602080601f83116001811462000210575f8415620001f85750858301515b5f19600386901b1c1916600185901b1785556200019d565b5f85815260208120601f198616915b8281101562000240578886015182559484019460019091019084016200021f565b50858210156200025e57878501515f19600388901b60f8161c191681555b5050505050600190811b01905550565b610a3c806200027c5f395ff3fe608060405234801561000f575f80fd5b5060043610610106575f3560e01c806370a082311161009e57806395d89b411161006e57806395d89b4114610222578063a9059cbb1461022a578063dd62ed3e1461023d578063e248880614610275578063f2fde38b14610288575f80fd5b806370a08231146101ba578063715018a6146101e257806379cc6790146101ea5780638da5cb5b146101fd575f80fd5b806329ed091e116100d957806329ed091e14610170578063313ce5671461018557806340c10f191461019457806342966c68146101a7575f80fd5b806306fdde031461010a578063095ea7b31461012857806318160ddd1461014b57806323b872dd1461015d575b5f80fd5b61011261029b565b60405161011f9190610880565b60405180910390f35b61013b6101363660046108e6565b61032b565b604051901515815260200161011f565b6002545b60405190815260200161011f565b61013b61016b36600461090e565b610344565b61018361017e366004610947565b610367565b005b6040516012815260200161011f565b6101836101a23660046108e6565b6103c0565b6101836101b5366004610967565b61042d565b61014f6101c8366004610947565b6001600160a01b03165f9081526020819052604090205490565b61018361043a565b6101836101f83660046108e6565b61044d565b6005546001600160a01b03165b6040516001600160a01b03909116815260200161011f565b610112610462565b61013b6102383660046108e6565b610471565b61014f61024b36600461097e565b6001600160a01b039182165f90815260016020908152604080832093909416825291909152205490565b60065461020a906001600160a01b031681565b610183610296366004610947565b61047e565b6060600380546102aa906109af565b80601f01602080910402602001604051908101604052809291908181526020018280546102d6906109af565b80156103215780601f106102f857610100808354040283529160200191610321565b820191905f5260205f20905b81548152906001019060200180831161030457829003601f168201915b5050505050905090565b5f336103388185856104b8565b60019150505b92915050565b5f336103518582856104ca565b61035c858585610545565b506001949350505050565b61036f6105a2565b600680546001600160a01b038381166001600160a01b0319831681179093556040519116919082907fec61b8f447281ab552ddc5c8f7bd81cb4bc65508d42cd0291b5231b136c3ba5c905f90a35050565b6006546001600160a01b0316331461041f5760405162461bcd60e51b815260206004820152601b60248201527f5052473a204f6e6c792050757267654875622063616e206d696e74000000000060448201526064015b60405180910390fd5b61042982826105cf565b5050565b6104373382610603565b50565b6104426105a2565b61044b5f610637565b565b6104588233836104ca565b6104298282610603565b6060600480546102aa906109af565b5f33610338818585610545565b6104866105a2565b6001600160a01b0381166104af57604051631e4fbdf760e01b81525f6004820152602401610416565b61043781610637565b6104c58383836001610688565b505050565b6001600160a01b038381165f908152600160209081526040808320938616835292905220545f19811461053f578181101561053157604051637dc7a0d960e11b81526001600160a01b03841660048201526024810182905260448101839052606401610416565b61053f84848484035f610688565b50505050565b6001600160a01b03831661056e57604051634b637e8f60e11b81525f6004820152602401610416565b6001600160a01b0382166105975760405163ec442f0560e01b81525f6004820152602401610416565b6104c583838361075a565b6005546001600160a01b0316331461044b5760405163118cdaa760e01b8152336004820152602401610416565b6001600160a01b0382166105f85760405163ec442f0560e01b81525f6004820152602401610416565b6104295f838361075a565b6001600160a01b03821661062c57604051634b637e8f60e11b81525f6004820152602401610416565b610429825f8361075a565b600580546001600160a01b038381166001600160a01b0319831681179093556040519116919082907f8be0079c531659141344cd1fd0a4f28419497f9722a3daafe3b4186f6b6457e0905f90a35050565b6001600160a01b0384166106b15760405163e602df0560e01b81525f6004820152602401610416565b6001600160a01b0383166106da57604051634a1406b160e11b81525f6004820152602401610416565b6001600160a01b038085165f908152600160209081526040808320938716835292905220829055801561053f57826001600160a01b0316846001600160a01b03167f8c5be1e5ebec7d5bd14f71427d1e84f3dd0314c0f7b2291e5b200ac8c7c3b9258460405161074c91815260200190565b60405180910390a350505050565b6001600160a01b038316610784578060025f82825461077991906109e7565b909155506107f49050565b6001600160a01b0383165f90815260208190526040902054818110156107d65760405163391434e360e21b81526001600160a01b03851660048201526024810182905260448101839052606401610416565b6001600160a01b0384165f9081526020819052604090209082900390555b6001600160a01b0382166108105760028054829003905561082e565b6001600160a01b0382165f9081526020819052604090208054820190555b816001600160a01b0316836001600160a01b03167fddf252ad1be2c89b69c2b068fc378daa952ba7f163c4a11628f55a4df523b3ef8360405161087391815260200190565b60405180910390a3505050565b5f6020808352835180828501525f5b818110156108ab5785810183015185820160400152820161088f565b505f604082860101526040601f19601f8301168501019250505092915050565b80356001600160a01b03811681146108e1575f80fd5b919050565b5f80604083850312156108f7575f80fd5b610900836108cb565b946020939093013593505050565b5f805f60608486031215610920575f80fd5b610929846108cb565b9250610937602085016108cb565b9150604084013590509250925092565b5f60208284031215610957575f80fd5b610960826108cb565b9392505050565b5f60208284031215610977575f80fd5b5035919050565b5f806040838503121561098f575f80fd5b610998836108cb565b91506109a6602084016108cb565b90509250929050565b600181811c908216806109c357607f821691505b6020821081036109e157634e487b7160e01b5f52602260045260245ffd5b50919050565b8082018082111561033e57634e487b7160e01b5f52601160045260245ffdfea26469706673582212204a95d462a5e00727e42e7628f3b57e47b333ac644e9d7d4b16e87c8a5a6866ae64736f6c63430008140033",
        "nonce": "0xc",
        "chainId": "0x14a34"
      },
      "additionalContracts": [],
      "isFixedGasLimit": false
    },
    {
      "hash": "0xf407e6309db3c6bf3554f787790d1df5341a7cdbb2c0e9797dd99baf9661ad15",
      "transactionType": "CREATE",
      "contractName": "PurgeHub",
      "contractAddress": "0x16f97aab49ec1969ff520ddda64f2e3870856a0f",
      "function": null,
      "arguments": [
        "0x5C39612259941648Ddbd022689f9d891699177cC",
        "0x5364e0440e57F7401e64A89eEC7aC7998373Dda6"
      ],
      "transaction": {
        "from": "0x5364e0440e57f7401e64a89eec7ac7998373dda6",
        "gas": "0x1063cf",
        "value": "0x0",
        "input": "0x608060405234801561000f575f80fd5b50604051610d46380380610d4683398101604081905261002e91610137565b338061005357604051631e4fbdf760e01b81525f600482015260240160405180910390fd5b61005c816100cd565b506001808055600280546001600160a01b039485166001600160a01b0319918216179091556006805493909416921691909117909155619ce85f5260076020527f0e1b4ae325878f1a113a91c89360495523bef883853d112c63de5cb8f5280e4b805460ff19169091179055610168565b5f80546001600160a01b038381166001600160a01b0319831681178455604051919092169283917f8be0079c531659141344cd1fd0a4f28419497f9722a3daafe3b4186f6b6457e09190a35050565b80516001600160a01b0381168114610132575f80fd5b919050565b5f8060408385031215610148575f80fd5b6101518361011c565b915061015f6020840161011c565b90509250929050565b610bd1806101755f395ff3fe608060405234801561000f575f80fd5b506004361061011c575f3560e01c80638fbbb557116100a9578063e6c357821161006e578063e6c3578214610296578063e7b2beed1461029f578063ecd8dc3a146102e0578063f0f44260146102f3578063f2fde38b14610306575f80fd5b80638fbbb5571461022b578063ada1388c1461023e578063b4892be214610251578063bf9c6d3d14610264578063d68743b314610277575f80fd5b806329e295c5116100ef57806329e295c5146101b157806353267dd3146101d357806361d027b3146101e8578063715018a6146102135780638da5cb5b1461021b575f80fd5b80630860762914610120578063164789da1461013f5780631b135af71461017c578063248514dd1461018f575b5f80fd5b61012c64d18c2e280081565b6040519081526020015b60405180910390f35b61016c61014d3660046109c1565b600460209081525f928352604080842090915290825290205460ff1681565b6040519015158152602001610136565b61012c61018a3660046109f2565b610319565b61016c61019d366004610a09565b60076020525f908152604090205460ff1681565b61016c6101bf366004610a3f565b60036020525f908152604090205460ff1681565b6101e66101e1366004610a58565b61033d565b005b6006546101fb906001600160a01b031681565b6040516001600160a01b039091168152602001610136565b6101e661039a565b5f546001600160a01b03166101fb565b6101e6610239366004610a8f565b6103ad565b6101e661024c366004610ab7565b610409565b6101e661025f366004610b0a565b610704565b6002546101fb906001600160a01b031681565b61012c610285366004610a09565b60086020525f908152604090205481565b61012c60055481565b61016c6102ad3660046109c1565b63ffffffff82165f90815260046020908152604080832067ffffffffffffffff8516845290915290205460ff1692915050565b6101e66102ee366004610b24565b6107f8565b6101e6610301366004610a3f565b610857565b6101e6610314366004610a3f565b6108b0565b5f620f424061032d64d18c2e280084610b52565b6103379190610b69565b92915050565b6103456108ed565b63ffffffff82165f8181526008602052604090819020839055517f06e3ec4c465e2a2bfa48222e363aaf57b5ab9a87e71cb7b890d394da142f39449061038e9084815260200190565b60405180910390a25050565b6103a26108ed565b6103ab5f610919565b565b6103b56108ed565b63ffffffff82165f81815260076020908152604091829020805460ff191685151590811790915591519182527f8c3c71aedf3488faccc5d8b353f31837995f6ce36c04f9449471680016f2adc1910161038e565b610411610968565b335f9081526003602052604090205460ff166104745760405162461bcd60e51b815260206004820152601e60248201527f50757267654875623a20556e617574686f72697a65642072656c61796572000060448201526064015b60405180910390fd5b63ffffffff85165f9081526007602052604090205460ff166104e35760405162461bcd60e51b815260206004820152602260248201527f50757267654875623a20556e737570706f7274656420736f757263652063686160448201526134b760f11b606482015260840161046b565b63ffffffff85165f9081526008602052604090205484146105465760405162461bcd60e51b815260206004820152601860248201527f50757267654875623a20556e7472757374656420706565720000000000000000604482015260640161046b565b63ffffffff85165f90815260046020908152604080832067ffffffffffffffff8516845290915290205460ff16156105ca5760405162461bcd60e51b815260206004820152602160248201527f50757267654875623a204e6f6e636520616c72656164792070726f63657373656044820152601960fa1b606482015260840161046b565b63ffffffff85165f90815260046020908152604080832067ffffffffffffffff851684529091528120805460ff19166001179055620f424061061164d18c2e280085610b52565b61061b9190610b69565b6002546040516340c10f1960e01b81526001600160a01b038781166004830152602482018490529293509116906340c10f19906044015f604051808303815f87803b158015610668575f80fd5b505af115801561067a573d5f803e3d5ffd5b505050508260055f82825461068f9190610b88565b9091555050604080518481526020810183905267ffffffffffffffff84168183015290516001600160a01b03861691879163ffffffff8a16917f2eb0ace5cf0e2fce13699dba8add76e242f5b4aafb8e13305d8579cf5d0f2447919081900360600190a4506106fd60018055565b5050505050565b61070c6108ed565b5f620f424061072064d18c2e280084610b52565b61072a9190610b69565b6002546040516340c10f1960e01b81526001600160a01b038681166004830152602482018490529293509116906340c10f19906044015f604051808303815f87803b158015610777575f80fd5b505af1158015610789573d5f803e3d5ffd5b505050508160055f82825461079e9190610b88565b909155505060408051838152602081018390525f9181018290526001600160a01b038516919081907f2eb0ace5cf0e2fce13699dba8add76e242f5b4aafb8e13305d8579cf5d0f24479060600160405180910390a4505050565b6108006108ed565b6001600160a01b0382165f81815260036020908152604091829020805460ff191685151590811790915591519182527f4b36b2e66f38ed349bec532105790177f1283bcbc094e6cd48565195d3033c43910161038e565b61085f6108ed565b600680546001600160a01b038381166001600160a01b0319831681179093556040519116919082907f4ab5be82436d353e61ca18726e984e561f5c1cc7c6d38b29d2553c790434705a905f90a35050565b6108b86108ed565b6001600160a01b0381166108e157604051631e4fbdf760e01b81525f600482015260240161046b565b6108ea81610919565b50565b5f546001600160a01b031633146103ab5760405163118cdaa760e01b815233600482015260240161046b565b5f80546001600160a01b038381166001600160a01b0319831681178455604051919092169283917f8be0079c531659141344cd1fd0a4f28419497f9722a3daafe3b4186f6b6457e09190a35050565b60026001540361098b57604051633ee5aeb560e01b815260040160405180910390fd5b6002600155565b803563ffffffff811681146109a5575f80fd5b919050565b803567ffffffffffffffff811681146109a5575f80fd5b5f80604083850312156109d2575f80fd5b6109db83610992565b91506109e9602084016109aa565b90509250929050565b5f60208284031215610a02575f80fd5b5035919050565b5f60208284031215610a19575f80fd5b610a2282610992565b9392505050565b80356001600160a01b03811681146109a5575f80fd5b5f60208284031215610a4f575f80fd5b610a2282610a29565b5f8060408385031215610a69575f80fd5b610a7283610992565b946020939093013593505050565b803580151581146109a5575f80fd5b5f8060408385031215610aa0575f80fd5b610aa983610992565b91506109e960208401610a80565b5f805f805f60a08688031215610acb575f80fd5b610ad486610992565b945060208601359350610ae960408701610a29565b925060608601359150610afe608087016109aa565b90509295509295909350565b5f8060408385031215610b1b575f80fd5b610a7283610a29565b5f8060408385031215610b35575f80fd5b610aa983610a29565b634e487b7160e01b5f52601160045260245ffd5b808202811582820484141761033757610337610b3e565b5f82610b8357634e487b7160e01b5f52601260045260245ffd5b500490565b8082018082111561033757610337610b3e56fea264697066735822122031518ab8f764b73a83c02241799ba9f7af0769b566d196c6352986e9e45c81e464736f6c634300081400330000000000000000000000005c39612259941648ddbd022689f9d891699177cc0000000000000000000000005364e0440e57f7401e64a89eec7ac7998373dda6",
        "nonce": "0xd",
        "chainId": "0x14a34"
      },
      "additionalContracts": [],
      "isFixedGasLimit": false
    },
    {
      "hash": "0x6fd7bbf848ff767944f3503223c10aa232543eed72de1a541fb749e6141b78be",
      "transactionType": "CALL",
      "contractName": "PRGToken",
      "contractAddress": "0x5c39612259941648ddbd022689f9d891699177cc",
      "function": "setPurgeHub(address)",
      "arguments": [
        "0x16F97AAB49Ec1969FF520DdDa64f2E3870856A0f"
      ],
      "transaction": {
        "from": "0x5364e0440e57f7401e64a89eec7ac7998373dda6",
        "to": "0x5c39612259941648ddbd022689f9d891699177cc",
        "gas": "0x100f4",
        "value": "0x0",
        "input": "0x29ed091e00000000000000000000000016f97aab49ec1969ff520ddda64f2e3870856a0f",
        "nonce": "0xe",
        "chainId": "0x14a34"
      },
      "additionalContracts": [],
      "isFixedGasLimit": false
    },
    {
      "hash": "0x3389fc3357cc618821b8efd66b87624343ae09461895ccd8d58b3d89bc34a58b",
      "transactionType": "CALL",
      "contractName": "PurgeHub",
      "contractAddress": "0x16f97aab49ec1969ff520ddda64f2e3870856a0f",
      "function": "setRelayer(address,bool)",
      "arguments": [
        "0x5364e0440e57F7401e64A89eEC7aC7998373Dda6",
        "true"
      ],
      "transaction": {
        "from": "0x5364e0440e57f7401e64a89eec7ac7998373dda6",
        "to": "0x16f97aab49ec1969ff520ddda64f2e3870856a0f",
        "gas": "0x1117e",
        "value": "0x0",
        "input": "0xecd8dc3a0000000000000000000000005364e0440e57f7401e64a89eec7ac7998373dda60000000000000000000000000000000000000000000000000000000000000001",
        "nonce": "0xf",
        "chainId": "0x14a34"
      },
      "additionalContracts": [],
      "isFixedGasLimit": false
    },
    {
      "hash": "0xa0c40f7c175de4a1715053061de2b53b6dfdbf599bb03fb8f930c3380a2d5b8c",
      "transactionType": "CALL",
      "contractName": "PurgeHub",
      "contractAddress": "0x16f97aab49ec1969ff520ddda64f2e3870856a0f",
      "function": "setTrustedPeer(uint32,bytes32)",
      "arguments": [
        "40168",
        "0x00000000000000000000000000000000c5f4e9f3d4b8a7c6e5d4c3b2a1908070"
      ],
      "transaction": {
        "from": "0x5364e0440e57f7401e64a89eec7ac7998373dda6",
        "to": "0x16f97aab49ec1969ff520ddda64f2e3870856a0f",
        "gas": "0x10152",
        "value": "0x0",
        "input": "0x53267dd30000000000000000000000000000000000000000000000000000000000009ce800000000000000000000000000000000c5f4e9f3d4b8a7c6e5d4c3b2a1908070",
        "nonce": "0x10",
        "chainId": "0x14a34"
      },
      "additionalContracts": [],
      "isFixedGasLimit": false
    }
  ],
  "receipts": [
    {
      "status": "0x1",
      "cumulativeGasUsed": "0xf3765",
      "logs": [
        {
          "address": "0x5c39612259941648ddbd022689f9d891699177cc",
          "topics": [
            "0x8be0079c531659141344cd1fd0a4f28419497f9722a3daafe3b4186f6b6457e0",
            "0x0000000000000000000000000000000000000000000000000000000000000000",
            "0x0000000000000000000000005364e0440e57f7401e64a89eec7ac7998373dda6"
          ],
          "data": "0x",
          "blockHash": "0x1d1fb83e53d1cc86d9947cd4b186e3e3f777ecc43ecd31cdd11c0b36458cc223",
          "blockNumber": "0x224a681",
          "blockTimestamp": "0x695cabe2",
          "transactionHash": "0xf407e6309db3c6bf3554f787790d1df5341a7cdbb2c0e9797dd99baf9661ad15",
          "transactionIndex": "0x2",
          "logIndex": "0x0",
          "removed": false
        }
      ],
      "logsBloom": "0x00000000000000000000000000000000000000000000000000800000000000000000000000000000000000000000000000000000000000000000000000000000000000000000000000000002000000000001000000000000000000000000000000000000020000000000000000000800000000000000000000008000000000400008000000000000000000000000000000000000000000000000000000000000000000000000000040000000000000000000000000000000000000000000000000000000000000000000000000000000000000000000000000000000040020000000000000000000000000000000000000000100000000000000000000000000",
      "type": "0x2",
      "transactionHash": "0xf407e6309db3c6bf3554f787790d1df5341a7cdbb2c0e9797dd99baf9661ad15",
      "transactionIndex": "0x2",
      "blockHash": "0x1d1fb83e53d1cc86d9947cd4b186e3e3f777ecc43ecd31cdd11c0b36458cc223",
      "blockNumber": "0x224a681",
      "gasUsed": "0xaa740",
      "effectiveGasPrice": "0x124f80",
      "blobGasUsed": "0x97950",
      "from": "0x5364e0440e57f7401e64a89eec7ac7998373dda6",
      "to": null,
      "contractAddress": "0x5c39612259941648ddbd022689f9d891699177cc",
      "daFootprintGasScalar": "0x138",
      "l1BaseFeeScalar": "0x44d",
      "l1BlobBaseFee": "0x1",
      "l1BlobBaseFeeScalar": "0xa118b",
      "l1Fee": "0x50",
      "l1GasPrice": "0x8",
      "l1GasUsed": "0x7c6f"
    },
    {
      "status": "0x1",
      "cumulativeGasUsed": "0x1bd2f1",
      "logs": [
        {
          "address": "0x16f97aab49ec1969ff520ddda64f2e3870856a0f",
          "topics": [
            "0x8be0079c531659141344cd1fd0a4f28419497f9722a3daafe3b4186f6b6457e0",
            "0x0000000000000000000000000000000000000000000000000000000000000000",
            "0x0000000000000000000000005364e0440e57f7401e64a89eec7ac7998373dda6"
          ],
          "data": "0x",
          "blockHash": "0x1d1fb83e53d1cc86d9947cd4b186e3e3f777ecc43ecd31cdd11c0b36458cc223",
          "blockNumber": "0x224a681",
          "blockTimestamp": "0x695cabe2",
          "transactionHash": "0x6fd7bbf848ff767944f3503223c10aa232543eed72de1a541fb749e6141b78be",
          "transactionIndex": "0x3",
          "logIndex": "0x1",
          "removed": false
        }
      ],
      "logsBloom": "0x00000000000000000000000000000000000000000000000001800000000000000000000000000000000000000000000000000000000000000000000000000000000000000000000000000002000000000001000000000000000000000000000000000000020000000000000000000800000000000000000000000000000800400000000000000000000000000000000000000000000000000000000000000000000000000000000040000000000000000000000000000000002000000000000000000000000000000000000000000000000000000000000000000000000020000000000000000000000000000000000000000100000000000000000000000000",
      "type": "0x2",
      "transactionHash": "0x6fd7bbf848ff767944f3503223c10aa232543eed72de1a541fb749e6141b78be",
      "transactionIndex": "0x3",
      "blockHash": "0x1d1fb83e53d1cc86d9947cd4b186e3e3f777ecc43ecd31cdd11c0b36458cc223",
      "blockNumber": "0x224a681",
      "gasUsed": "0xc9b8c",
      "effectiveGasPrice": "0x124f80",
      "blobGasUsed": "0x991b0",
      "from": "0x5364e0440e57f7401e64a89eec7ac7998373dda6",
      "to": null,
      "contractAddress": "0x16f97aab49ec1969ff520ddda64f2e3870856a0f",
      "daFootprintGasScalar": "0x138",
      "l1BaseFeeScalar": "0x44d",
      "l1BlobBaseFee": "0x1",
      "l1BlobBaseFeeScalar": "0xa118b",
      "l1Fee": "0x50",
      "l1GasPrice": "0x8",
      "l1GasUsed": "0x7da2"
    },
    {
      "status": "0x1",
      "cumulativeGasUsed": "0x1c8cf9",
      "logs": [
        {
          "address": "0x5c39612259941648ddbd022689f9d891699177cc",
          "topics": [
            "0xec61b8f447281ab552ddc5c8f7bd81cb4bc65508d42cd0291b5231b136c3ba5c",
            "0x0000000000000000000000000000000000000000000000000000000000000000",
            "0x00000000000000000000000016f97aab49ec1969ff520ddda64f2e3870856a0f"
          ],
          "data": "0x",
          "blockHash": "0x1d1fb83e53d1cc86d9947cd4b186e3e3f777ecc43ecd31cdd11c0b36458cc223",
          "blockNumber": "0x224a681",
          "blockTimestamp": "0x695cabe2",
          "transactionHash": "0x62d5fe7ca59ceb157cb9d6a4ff94aee444bd067b12311b82a5febd8a486a7cdd",
          "transactionIndex": "0x4",
          "logIndex": "0x2",
          "removed": false
        }
      ],
      "logsBloom": "0x00000000000000000000000000000000000000000000000000000000000000000000000000000000000000000000000000000000000000000000000000000000000000000000000000000000000000000000000000000000000800000000000000000000020000000000000000000800000000000000000000008800000000000008000000000000000000000000000000000000000000000000000000000000000000000000000000000000000000000000000000000000000000000000000000000000000000000000000000000000000000000000000000202000040020000000000000000000000000000000000000000000002000000000000010000000",
      "type": "0x2",
      "transactionHash": "0x62d5fe7ca59ceb157cb9d6a4ff94aee444bd067b12311b82a5febd8a486a7cdd",
      "transactionIndex": "0x4",
      "blockHash": "0x1d1fb83e53d1cc86d9947cd4b186e3e3f777ecc43ecd31cdd11c0b36458cc223",
      "blockNumber": "0x224a681",
      "gasUsed": "0xba08",
      "effectiveGasPrice": "0x124f80",
      "blobGasUsed": "0x79e0",
      "from": "0x5364e0440e57f7401e64a89eec7ac7998373dda6",
      "to": "0x5c39612259941648ddbd022689f9d891699177cc",
      "contractAddress": null,
      "daFootprintGasScalar": "0x138",
      "l1BaseFeeScalar": "0x44d",
      "l1BlobBaseFee": "0x1",
      "l1BlobBaseFeeScalar": "0xa118b",
      "l1Fee": "0x50",
      "l1GasPrice": "0x8",
      "l1GasUsed": "0x640"
    },
    {
      "status": "0x1",
      "cumulativeGasUsed": "0x1d47fa",
      "logs": [
        {
          "address": "0x16f97aab49ec1969ff520ddda64f2e3870856a0f",
          "topics": [
            "0x4b36b2e66f38ed349bec532105790177f1283bcbc094e6cd48565195d3033c43",
            "0x0000000000000000000000005364e0440e57f7401e64a89eec7ac7998373dda6"
          ],
          "data": "0x0000000000000000000000000000000000000000000000000000000000000001",
          "blockHash": "0x1d1fb83e53d1cc86d9947cd4b186e3e3f777ecc43ecd31cdd11c0b36458cc223",
          "blockNumber": "0x224a681",
          "blockTimestamp": "0x695cabe2",
          "transactionHash": "0xa0c40f7c175de4a1715053061de2b53b6dfdbf599bb03fb8f930c3380a2d5b8c",
          "transactionIndex": "0x5",
          "logIndex": "0x3",
          "removed": false
        }
      ],
      "logsBloom": "0x00000000000000000000000000000000000000000000000001000000000000000000000000000000000000000000000000000000000000000000000000000000000000000000000000000002000000000000000000000000000000000000000000000000000000000000000000000000000000000000000000000000000800000020000000000000000000000000000000000000000000000000000000000000000000000000000040000000000000000000000000000000002000000000000000000000000000000000000000000000040000000000000000000000010000000000000000000000000000000000000000000100000000000000000000000000",
      "type": "0x2",
      "transactionHash": "0xa0c40f7c175de4a1715053061de2b53b6dfdbf599bb03fb8f930c3380a2d5b8c",
      "transactionIndex": "0x5",
      "blockHash": "0x1d1fb83e53d1cc86d9947cd4b186e3e3f777ecc43ecd31cdd11c0b36458cc223",
      "blockNumber": "0x224a681",
      "gasUsed": "0xbb01",
      "effectiveGasPrice": "0x124f80",
      "blobGasUsed": "0x79e0",
      "from": "0x5364e0440e57f7401e64a89eec7ac7998373dda6",
      "to": "0x16f97aab49ec1969ff520ddda64f2e3870856a0f",
      "contractAddress": null,
      "daFootprintGasScalar": "0x138",
      "l1BaseFeeScalar": "0x44d",
      "l1BlobBaseFee": "0x1",
      "l1BlobBaseFeeScalar": "0xa118b",
      "l1Fee": "0x50",
      "l1GasPrice": "0x8",
      "l1GasUsed": "0x640"
    },
    {
      "status": "0x1",
      "cumulativeGasUsed": "0x1e0247",
      "logs": [
        {
          "address": "0x16f97aab49ec1969ff520ddda64f2e3870856a0f",
          "topics": [
            "0x06e3ec4c465e2a2bfa48222e363aaf57b5ab9a87e71cb7b890d394da142f3944",
            "0x0000000000000000000000000000000000000000000000000000000000009ce8"
          ],
          "data": "0x00000000000000000000000000000000c5f4e9f3d4b8a7c6e5d4c3b2a1908070",
          "blockHash": "0x1d1fb83e53d1cc86d9947cd4b186e3e3f777ecc43ecd31cdd11c0b36458cc223",
          "blockNumber": "0x224a681",
          "blockTimestamp": "0x695cabe2",
          "transactionHash": "0x3389fc3357cc618821b8efd66b87624343ae09461895ccd8d58b3d89bc34a58b",
          "transactionIndex": "0x6",
          "logIndex": "0x4",
          "removed": false
        }
      ],
      "logsBloom": "0x00000000000000000000000000000000000000000000000001000000000000000000000000000000000000000000000000000000000000000000000000000000080000000800000000000000000000000000000000000000000000000000000000000000000000000000000000000000000000000000000000000000000800000000000000000000000000000000000000000000000000000000002000000000000000000000000000000000000000000000000000000000002000000000000000000000100000000000000000000000000000000000000000000000000000000000000000000800000000000000000000000000000000000000000400000000",
      "type": "0x2",
      "transactionHash": "0x3389fc3357cc618821b8efd66b87624343ae09461895ccd8d58b3d89bc34a58b",
      "transactionIndex": "0x6",
      "blockHash": "0x1d1fb83e53d1cc86d9947cd4b186e3e3f777ecc43ecd31cdd11c0b36458cc223",
      "blockNumber": "0x224a681",
      "gasUsed": "0xba4d",
      "effectiveGasPrice": "0x124f80",
      "blobGasUsed": "0x79e0",
      "from": "0x5364e0440e57f7401e64a89eec7ac7998373dda6",
      "to": "0x16f97aab49ec1969ff520ddda64f2e3870856a0f",
      "contractAddress": null,
      "daFootprintGasScalar": "0x138",
      "l1BaseFeeScalar": "0x44d",
      "l1BlobBaseFee": "0x1",
      "l1BlobBaseFeeScalar": "0xa118b",
      "l1Fee": "0x50",
      "l1GasPrice": "0x8",
      "l1GasUsed": "0x640"
    }
  ],
  "libraries": [],
  "pending": [],
  "returns": {},
  "timestamp": 1767680993789,
  "chain": 84532,
  "commit": null
}